{
  "_format": "hh-sol-artifact-1",
  "contractName": "ETFv2",
  "sourceName": "contracts/ETFContractv2.sol",
  "abi": [
    {
      "inputs": [
        {
          "internalType": "string",
          "name": "_name",
          "type": "string"
        },
        {
          "internalType": "string",
          "name": "_symbol",
          "type": "string"
        },
        {
          "components": [
            {
              "internalType": "address",
              "name": "assetContract",
              "type": "address"
            },
            {
              "internalType": "uint256",
              "name": "amount",
              "type": "uint256"
            },
            {
              "internalType": "address",
              "name": "oracleAddress",
              "type": "address"
            },
            {
              "internalType": "uint64",
              "name": "chainIdSelector",
              "type": "uint64"
            }
          ],
          "internalType": "struct TokenAmounts[]",
          "name": "_whitelistedTokenAmounts",
          "type": "tuple[]"
        },
        {
          "components": [
            {
              "internalType": "address",
              "name": "nativeTokenWrapper",
              "type": "address"
            },
            {
              "internalType": "string",
              "name": "uriETFToken",
              "type": "string"
            },
            {
              "internalType": "address",
              "name": "etfTokenAddress",
              "type": "address"
            },
            {
              "internalType": "uint256",
              "name": "etfTokenPerWrap",
              "type": "uint256"
            },
            {
              "internalType": "uint256",
              "name": "percentageFee",
              "type": "uint256"
            }
          ],
          "internalType": "struct ETFTokenOptions",
          "name": "_etfOptions",
          "type": "tuple"
        },
        {
          "components": [
            {
              "internalType": "address",
              "name": "router",
              "type": "address"
            },
            {
              "internalType": "address",
              "name": "link",
              "type": "address"
            },
            {
              "internalType": "uint64",
              "name": "currentChainSelectorId",
              "type": "uint64"
            },
            {
              "internalType": "uint64",
              "name": "subscriptionId",
              "type": "uint64"
            },
            {
              "internalType": "address",
              "name": "vrfCoordinator",
              "type": "address"
            },
            {
              "internalType": "bytes32",
              "name": "keyHash",
              "type": "bytes32"
            }
          ],
          "internalType": "struct ChainLinkData",
          "name": "_chainLinkData",
          "type": "tuple"
        }
      ],
      "stateMutability": "nonpayable",
      "type": "constructor"
    },
    {
      "inputs": [
        {
          "internalType": "address",
          "name": "router",
          "type": "address"
        }
      ],
      "name": "InvalidRouter",
      "type": "error"
    },
    {
      "inputs": [
        {
          "internalType": "uint256",
          "name": "currentBalance",
          "type": "uint256"
        },
        {
          "internalType": "uint256",
          "name": "calculatedFees",
          "type": "uint256"
        }
      ],
      "name": "NotEnoughBalance",
      "type": "error"
    },
    {
      "inputs": [
        {
          "internalType": "address",
          "name": "have",
          "type": "address"
        },
        {
          "internalType": "address",
          "name": "want",
          "type": "address"
        }
      ],
      "name": "OnlyCoordinatorCanFulfill",
      "type": "error"
    },
    {
      "inputs": [
        {
          "internalType": "address",
          "name": "operator",
          "type": "address"
        }
      ],
      "name": "OperatorNotAllowed",
      "type": "error"
    },
    {
      "anonymous": false,
      "inputs": [
        {
          "indexed": true,
          "internalType": "address",
          "name": "owner",
          "type": "address"
        },
        {
          "indexed": true,
          "internalType": "address",
          "name": "approved",
          "type": "address"
        },
        {
          "indexed": true,
          "internalType": "uint256",
          "name": "tokenId",
          "type": "uint256"
        }
      ],
      "name": "Approval",
      "type": "event"
    },
    {
      "anonymous": false,
      "inputs": [
        {
          "indexed": true,
          "internalType": "address",
          "name": "owner",
          "type": "address"
        },
        {
          "indexed": true,
          "internalType": "address",
          "name": "operator",
          "type": "address"
        },
        {
          "indexed": false,
          "internalType": "bool",
          "name": "approved",
          "type": "bool"
        }
      ],
      "name": "ApprovalForAll",
      "type": "event"
    },
    {
      "anonymous": false,
      "inputs": [
        {
          "indexed": false,
          "internalType": "string",
          "name": "prevURI",
          "type": "string"
        },
        {
          "indexed": false,
          "internalType": "string",
          "name": "newURI",
          "type": "string"
        }
      ],
      "name": "ContractURIUpdated",
      "type": "event"
    },
    {
      "anonymous": false,
      "inputs": [
        {
          "indexed": true,
          "internalType": "address",
          "name": "sender",
          "type": "address"
        },
        {
          "indexed": false,
          "internalType": "uint256",
          "name": "value",
          "type": "uint256"
        }
      ],
      "name": "EtherReceived",
      "type": "event"
    },
    {
      "anonymous": false,
      "inputs": [
        {
          "indexed": false,
          "internalType": "bytes32",
          "name": "messageId",
          "type": "bytes32"
        },
        {
          "indexed": false,
          "internalType": "uint64",
          "name": "chainId",
          "type": "uint64"
        },
        {
          "indexed": false,
          "internalType": "address",
          "name": "sender",
          "type": "address"
        },
        {
          "indexed": false,
          "internalType": "bytes",
          "name": "data",
          "type": "bytes"
        }
      ],
      "name": "MessageReceived",
      "type": "event"
    },
    {
      "anonymous": false,
      "inputs": [
        {
          "indexed": false,
          "internalType": "bool",
          "name": "restriction",
          "type": "bool"
        }
      ],
      "name": "OperatorRestriction",
      "type": "event"
    },
    {
      "anonymous": false,
      "inputs": [
        {
          "indexed": true,
          "internalType": "address",
          "name": "prevOwner",
          "type": "address"
        },
        {
          "indexed": true,
          "internalType": "address",
          "name": "newOwner",
          "type": "address"
        }
      ],
      "name": "OwnerUpdated",
      "type": "event"
    },
    {
      "anonymous": false,
      "inputs": [
        {
          "indexed": true,
          "internalType": "address",
          "name": "from",
          "type": "address"
        },
        {
          "indexed": true,
          "internalType": "address",
          "name": "to",
          "type": "address"
        },
        {
          "indexed": true,
          "internalType": "uint256",
          "name": "tokenId",
          "type": "uint256"
        }
      ],
      "name": "Transfer",
      "type": "event"
    },
    {
      "inputs": [],
      "name": "OPERATOR_FILTER_REGISTRY",
      "outputs": [
        {
          "internalType": "contract IOperatorFilterRegistry",
          "name": "",
          "type": "address"
        }
      ],
      "stateMutability": "view",
      "type": "function"
    },
    {
      "inputs": [],
      "name": "_baseTokenURIV",
      "outputs": [
        {
          "internalType": "string",
          "name": "",
          "type": "string"
        }
      ],
      "stateMutability": "view",
      "type": "function"
    },
    {
      "inputs": [],
      "name": "_burnCounter",
      "outputs": [
        {
          "internalType": "uint256",
          "name": "",
          "type": "uint256"
        }
      ],
      "stateMutability": "view",
      "type": "function"
    },
    {
      "inputs": [],
      "name": "_currentIndex",
      "outputs": [
        {
          "internalType": "uint256",
          "name": "",
          "type": "uint256"
        }
      ],
      "stateMutability": "view",
      "type": "function"
    },
    {
      "inputs": [
        {
          "internalType": "address",
          "name": "to",
          "type": "address"
        }
      ],
      "name": "_mint",
      "outputs": [],
      "stateMutability": "nonpayable",
      "type": "function"
    },
    {
      "inputs": [],
      "name": "admin",
      "outputs": [
        {
          "internalType": "address",
          "name": "",
          "type": "address"
        }
      ],
      "stateMutability": "view",
      "type": "function"
    },
    {
      "inputs": [
        {
          "internalType": "address",
          "name": "to",
          "type": "address"
        },
        {
          "internalType": "uint256",
          "name": "tokenId",
          "type": "uint256"
        }
      ],
      "name": "approve",
      "outputs": [],
      "stateMutability": "nonpayable",
      "type": "function"
    },
    {
      "inputs": [
        {
          "internalType": "address",
          "name": "_owner",
          "type": "address"
        }
      ],
      "name": "balanceOf",
      "outputs": [
        {
          "internalType": "uint256",
          "name": "",
          "type": "uint256"
        }
      ],
      "stateMutability": "view",
      "type": "function"
    },
    {
      "inputs": [],
      "name": "bundleCount",
      "outputs": [
        {
          "internalType": "uint256",
          "name": "",
          "type": "uint256"
        }
      ],
      "stateMutability": "view",
      "type": "function"
    },
    {
      "inputs": [
        {
          "internalType": "uint256",
          "name": "",
          "type": "uint256"
        }
      ],
      "name": "bundleIdToETFId",
      "outputs": [
        {
          "internalType": "uint256",
          "name": "",
          "type": "uint256"
        }
      ],
      "stateMutability": "view",
      "type": "function"
    },
    {
      "inputs": [
        {
          "internalType": "uint256",
          "name": "",
          "type": "uint256"
        }
      ],
      "name": "bundleIdToRandomWinner",
      "outputs": [
        {
          "internalType": "address",
          "name": "",
          "type": "address"
        }
      ],
      "stateMutability": "view",
      "type": "function"
    },
    {
      "inputs": [
        {
          "components": [
            {
              "internalType": "bytes32",
              "name": "messageId",
              "type": "bytes32"
            },
            {
              "internalType": "uint64",
              "name": "sourceChainSelector",
              "type": "uint64"
            },
            {
              "internalType": "bytes",
              "name": "sender",
              "type": "bytes"
            },
            {
              "internalType": "bytes",
              "name": "data",
              "type": "bytes"
            },
            {
              "components": [
                {
                  "internalType": "address",
                  "name": "token",
                  "type": "address"
                },
                {
                  "internalType": "uint256",
                  "name": "amount",
                  "type": "uint256"
                }
              ],
              "internalType": "struct Client.EVMTokenAmount[]",
              "name": "destTokenAmounts",
              "type": "tuple[]"
            }
          ],
          "internalType": "struct Client.Any2EVMMessage",
          "name": "message",
          "type": "tuple"
        }
      ],
      "name": "ccipReceive",
      "outputs": [],
      "stateMutability": "nonpayable",
      "type": "function"
    },
    {
      "inputs": [
        {
          "internalType": "uint64",
          "name": "",
          "type": "uint64"
        }
      ],
      "name": "chainSelectorIdToSidechainAddress",
      "outputs": [
        {
          "internalType": "address",
          "name": "",
          "type": "address"
        }
      ],
      "stateMutability": "view",
      "type": "function"
    },
    {
      "inputs": [],
      "name": "contractURI",
      "outputs": [
        {
          "internalType": "string",
          "name": "",
          "type": "string"
        }
      ],
      "stateMutability": "view",
      "type": "function"
    },
    {
      "inputs": [],
      "name": "currentChainSelectorId",
      "outputs": [
        {
          "internalType": "uint64",
          "name": "",
          "type": "uint64"
        }
      ],
      "stateMutability": "view",
      "type": "function"
    },
    {
      "inputs": [
        {
          "internalType": "uint256",
          "name": "_bundleId",
          "type": "uint256"
        },
        {
          "components": [
            {
              "internalType": "address",
              "name": "assetContract",
              "type": "address"
            },
            {
              "internalType": "enum ITokenBundle.TokenType",
              "name": "tokenType",
              "type": "uint8"
            },
            {
              "internalType": "uint256",
              "name": "tokenId",
              "type": "uint256"
            },
            {
              "internalType": "uint256",
              "name": "totalAmount",
              "type": "uint256"
            }
          ],
          "internalType": "struct ITokenBundle.Token[]",
          "name": "_tokensToWrap",
          "type": "tuple[]"
        }
      ],
      "name": "depositFunds",
      "outputs": [
        {
          "internalType": "bool",
          "name": "canBeClosed",
          "type": "bool"
        }
      ],
      "stateMutability": "payable",
      "type": "function"
    },
    {
      "inputs": [
        {
          "internalType": "uint256",
          "name": "_bundleId",
          "type": "uint256"
        },
        {
          "internalType": "address",
          "name": "_address",
          "type": "address"
        }
      ],
      "name": "getAddressQuantityPerBundle",
      "outputs": [
        {
          "internalType": "uint256[]",
          "name": "quantities",
          "type": "uint256[]"
        },
        {
          "internalType": "address[]",
          "name": "contractAddresses",
          "type": "address[]"
        },
        {
          "components": [
            {
              "internalType": "bytes",
              "name": "depositFundMessage",
              "type": "bytes"
            },
            {
              "internalType": "bytes32",
              "name": "messageId",
              "type": "bytes32"
            },
            {
              "internalType": "address",
              "name": "sender",
              "type": "address"
            },
            {
              "internalType": "uint64",
              "name": "sourceChainSelector",
              "type": "uint64"
            }
          ],
          "internalType": "struct MessageDesposit[]",
          "name": "bundleMessages",
          "type": "tuple[]"
        }
      ],
      "stateMutability": "view",
      "type": "function"
    },
    {
      "inputs": [
        {
          "internalType": "uint256",
          "name": "tokenId",
          "type": "uint256"
        }
      ],
      "name": "getApproved",
      "outputs": [
        {
          "internalType": "address",
          "name": "",
          "type": "address"
        }
      ],
      "stateMutability": "view",
      "type": "function"
    },
    {
      "inputs": [],
      "name": "getBurnedCount",
      "outputs": [
        {
          "internalType": "uint256",
          "name": "",
          "type": "uint256"
        }
      ],
      "stateMutability": "view",
      "type": "function"
    },
    {
      "inputs": [],
      "name": "getRequiredAssets",
      "outputs": [
        {
          "internalType": "uint256[]",
          "name": "quantities",
          "type": "uint256[]"
        },
        {
          "internalType": "address[]",
          "name": "addresses",
          "type": "address[]"
        },
        {
          "internalType": "uint64[]",
          "name": "selectorsIds",
          "type": "uint64[]"
        }
      ],
      "stateMutability": "view",
      "type": "function"
    },
    {
      "inputs": [],
      "name": "getRouter",
      "outputs": [
        {
          "internalType": "address",
          "name": "",
          "type": "address"
        }
      ],
      "stateMutability": "view",
      "type": "function"
    },
    {
      "inputs": [
        {
          "internalType": "uint256",
          "name": "_bundleId",
          "type": "uint256"
        }
      ],
      "name": "getTokenCountOfBundle",
      "outputs": [
        {
          "internalType": "uint256",
          "name": "",
          "type": "uint256"
        }
      ],
      "stateMutability": "view",
      "type": "function"
    },
    {
      "inputs": [
        {
          "internalType": "uint256",
          "name": "_bundleId",
          "type": "uint256"
        },
        {
          "internalType": "uint256",
          "name": "index",
          "type": "uint256"
        }
      ],
      "name": "getTokenOfBundle",
      "outputs": [
        {
          "components": [
            {
              "internalType": "address",
              "name": "assetContract",
              "type": "address"
            },
            {
              "internalType": "enum ITokenBundle.TokenType",
              "name": "tokenType",
              "type": "uint8"
            },
            {
              "internalType": "uint256",
              "name": "tokenId",
              "type": "uint256"
            },
            {
              "internalType": "uint256",
              "name": "totalAmount",
              "type": "uint256"
            }
          ],
          "internalType": "struct ITokenBundle.Token",
          "name": "",
          "type": "tuple"
        }
      ],
      "stateMutability": "view",
      "type": "function"
    },
    {
      "inputs": [
        {
          "internalType": "uint256",
          "name": "_bundleId",
          "type": "uint256"
        }
      ],
      "name": "getTokensBundle",
      "outputs": [
        {
          "internalType": "uint256[]",
          "name": "quantities",
          "type": "uint256[]"
        },
        {
          "internalType": "address[]",
          "name": "addresses",
          "type": "address[]"
        },
        {
          "internalType": "uint64[]",
          "name": "selectorIds",
          "type": "uint64[]"
        }
      ],
      "stateMutability": "view",
      "type": "function"
    },
    {
      "inputs": [
        {
          "internalType": "uint256",
          "name": "_bundleId",
          "type": "uint256"
        }
      ],
      "name": "getUriOfBundle",
      "outputs": [
        {
          "internalType": "string",
          "name": "",
          "type": "string"
        }
      ],
      "stateMutability": "view",
      "type": "function"
    },
    {
      "inputs": [
        {
          "internalType": "address",
          "name": "_owner",
          "type": "address"
        },
        {
          "internalType": "address",
          "name": "operator",
          "type": "address"
        }
      ],
      "name": "isApprovedForAll",
      "outputs": [
        {
          "internalType": "bool",
          "name": "",
          "type": "bool"
        }
      ],
      "stateMutability": "view",
      "type": "function"
    },
    {
      "inputs": [
        {
          "internalType": "uint256",
          "name": "tokenId",
          "type": "uint256"
        }
      ],
      "name": "isETFBurned",
      "outputs": [
        {
          "internalType": "bool",
          "name": "",
          "type": "bool"
        }
      ],
      "stateMutability": "view",
      "type": "function"
    },
    {
      "inputs": [
        {
          "internalType": "uint64",
          "name": "",
          "type": "uint64"
        },
        {
          "internalType": "address",
          "name": "",
          "type": "address"
        }
      ],
      "name": "isWhiteListedToken",
      "outputs": [
        {
          "internalType": "bool",
          "name": "",
          "type": "bool"
        }
      ],
      "stateMutability": "view",
      "type": "function"
    },
    {
      "inputs": [],
      "name": "name",
      "outputs": [
        {
          "internalType": "string",
          "name": "",
          "type": "string"
        }
      ],
      "stateMutability": "view",
      "type": "function"
    },
    {
      "inputs": [],
      "name": "nextTokenIdToMint",
      "outputs": [
        {
          "internalType": "uint256",
          "name": "",
          "type": "uint256"
        }
      ],
      "stateMutability": "view",
      "type": "function"
    },
    {
      "inputs": [
        {
          "internalType": "address",
          "name": "",
          "type": "address"
        },
        {
          "internalType": "address",
          "name": "",
          "type": "address"
        },
        {
          "internalType": "uint256[]",
          "name": "",
          "type": "uint256[]"
        },
        {
          "internalType": "uint256[]",
          "name": "",
          "type": "uint256[]"
        },
        {
          "internalType": "bytes",
          "name": "",
          "type": "bytes"
        }
      ],
      "name": "onERC1155BatchReceived",
      "outputs": [
        {
          "internalType": "bytes4",
          "name": "",
          "type": "bytes4"
        }
      ],
      "stateMutability": "nonpayable",
      "type": "function"
    },
    {
      "inputs": [
        {
          "internalType": "address",
          "name": "",
          "type": "address"
        },
        {
          "internalType": "address",
          "name": "",
          "type": "address"
        },
        {
          "internalType": "uint256",
          "name": "",
          "type": "uint256"
        },
        {
          "internalType": "uint256",
          "name": "",
          "type": "uint256"
        },
        {
          "internalType": "bytes",
          "name": "",
          "type": "bytes"
        }
      ],
      "name": "onERC1155Received",
      "outputs": [
        {
          "internalType": "bytes4",
          "name": "",
          "type": "bytes4"
        }
      ],
      "stateMutability": "nonpayable",
      "type": "function"
    },
    {
      "inputs": [
        {
          "internalType": "address",
          "name": "",
          "type": "address"
        },
        {
          "internalType": "address",
          "name": "",
          "type": "address"
        },
        {
          "internalType": "uint256",
          "name": "",
          "type": "uint256"
        },
        {
          "internalType": "bytes",
          "name": "",
          "type": "bytes"
        }
      ],
      "name": "onERC721Received",
      "outputs": [
        {
          "internalType": "bytes4",
          "name": "",
          "type": "bytes4"
        }
      ],
      "stateMutability": "nonpayable",
      "type": "function"
    },
    {
      "inputs": [],
      "name": "operatorRestriction",
      "outputs": [
        {
          "internalType": "bool",
          "name": "",
          "type": "bool"
        }
      ],
      "stateMutability": "view",
      "type": "function"
    },
    {
      "inputs": [],
      "name": "owner",
      "outputs": [
        {
          "internalType": "address",
          "name": "",
          "type": "address"
        }
      ],
      "stateMutability": "view",
      "type": "function"
    },
    {
      "inputs": [
        {
          "internalType": "uint256",
          "name": "tokenId",
          "type": "uint256"
        }
      ],
      "name": "ownerOf",
      "outputs": [
        {
          "internalType": "address",
          "name": "",
          "type": "address"
        }
      ],
      "stateMutability": "view",
      "type": "function"
    },
    {
      "inputs": [
        {
          "internalType": "uint256",
          "name": "requestId",
          "type": "uint256"
        },
        {
          "internalType": "uint256[]",
          "name": "randomWords",
          "type": "uint256[]"
        }
      ],
      "name": "rawFulfillRandomWords",
      "outputs": [],
      "stateMutability": "nonpayable",
      "type": "function"
    },
    {
      "inputs": [
        {
          "internalType": "uint256",
          "name": "",
          "type": "uint256"
        },
        {
          "internalType": "uint256",
          "name": "",
          "type": "uint256"
        }
      ],
      "name": "reedeemMessages",
      "outputs": [
        {
          "internalType": "uint256",
          "name": "bundleId",
          "type": "uint256"
        },
        {
          "internalType": "address",
          "name": "receiver",
          "type": "address"
        },
        {
          "internalType": "bytes32",
          "name": "messageId",
          "type": "bytes32"
        }
      ],
      "stateMutability": "view",
      "type": "function"
    },
    {
      "inputs": [
        {
          "internalType": "uint256",
          "name": "bundleId",
          "type": "uint256"
        }
      ],
      "name": "reedemETF",
      "outputs": [
        {
          "internalType": "uint256",
          "name": "etfId",
          "type": "uint256"
        }
      ],
      "stateMutability": "nonpayable",
      "type": "function"
    },
    {
      "inputs": [
        {
          "internalType": "uint256",
          "name": "bundleId",
          "type": "uint256"
        }
      ],
      "name": "reeedemNFTVote",
      "outputs": [],
      "stateMutability": "nonpayable",
      "type": "function"
    },
    {
      "inputs": [
        {
          "internalType": "uint256",
          "name": "offset",
          "type": "uint256"
        },
        {
          "internalType": "uint256",
          "name": "items",
          "type": "uint256"
        }
      ],
      "name": "returnStateOfBundles",
      "outputs": [
        {
          "internalType": "uint256[]",
          "name": "bundleIds",
          "type": "uint256[]"
        },
        {
          "internalType": "address[]",
          "name": "addresses",
          "type": "address[]"
        },
        {
          "internalType": "uint256[][]",
          "name": "quantities",
          "type": "uint256[][]"
        },
        {
          "internalType": "bool[]",
          "name": "areMessagesIn",
          "type": "bool[]"
        },
        {
          "internalType": "bool[]",
          "name": "areETFBurned",
          "type": "bool[]"
        }
      ],
      "stateMutability": "view",
      "type": "function"
    },
    {
      "inputs": [
        {
          "internalType": "address",
          "name": "from",
          "type": "address"
        },
        {
          "internalType": "address",
          "name": "to",
          "type": "address"
        },
        {
          "internalType": "uint256",
          "name": "tokenId",
          "type": "uint256"
        }
      ],
      "name": "safeTransferFrom",
      "outputs": [],
      "stateMutability": "nonpayable",
      "type": "function"
    },
    {
      "inputs": [
        {
          "internalType": "address",
          "name": "from",
          "type": "address"
        },
        {
          "internalType": "address",
          "name": "to",
          "type": "address"
        },
        {
          "internalType": "uint256",
          "name": "tokenId",
          "type": "uint256"
        },
        {
          "internalType": "bytes",
          "name": "_data",
          "type": "bytes"
        }
      ],
      "name": "safeTransferFrom",
      "outputs": [],
      "stateMutability": "nonpayable",
      "type": "function"
    },
    {
      "inputs": [
        {
          "internalType": "uint256",
          "name": "bundleId",
          "type": "uint256"
        },
        {
          "internalType": "uint64",
          "name": "destinationChainSelector",
          "type": "uint64"
        },
        {
          "internalType": "enum PayFeesIn",
          "name": "payFeesIn",
          "type": "uint8"
        }
      ],
      "name": "sendReedeemMessage",
      "outputs": [
        {
          "internalType": "bytes32",
          "name": "messageId",
          "type": "bytes32"
        }
      ],
      "stateMutability": "nonpayable",
      "type": "function"
    },
    {
      "inputs": [
        {
          "internalType": "address",
          "name": "operator",
          "type": "address"
        },
        {
          "internalType": "bool",
          "name": "_approved",
          "type": "bool"
        }
      ],
      "name": "setApprovalForAll",
      "outputs": [],
      "stateMutability": "nonpayable",
      "type": "function"
    },
    {
      "inputs": [
        {
          "internalType": "string",
          "name": "baseTokenURI",
          "type": "string"
        }
      ],
      "name": "setBaseTokenURI",
      "outputs": [],
      "stateMutability": "nonpayable",
      "type": "function"
    },
    {
      "inputs": [
        {
          "internalType": "string",
          "name": "baseURI",
          "type": "string"
        }
      ],
      "name": "setBaseURI",
      "outputs": [],
      "stateMutability": "nonpayable",
      "type": "function"
    },
    {
      "inputs": [
        {
          "internalType": "string",
          "name": "_uri",
          "type": "string"
        }
      ],
      "name": "setContractURI",
      "outputs": [],
      "stateMutability": "nonpayable",
      "type": "function"
    },
    {
      "inputs": [
        {
          "internalType": "bool",
          "name": "_restriction",
          "type": "bool"
        }
      ],
      "name": "setOperatorRestriction",
      "outputs": [],
      "stateMutability": "nonpayable",
      "type": "function"
    },
    {
      "inputs": [
        {
          "internalType": "address",
          "name": "_newOwner",
          "type": "address"
        }
      ],
      "name": "setOwner",
      "outputs": [],
      "stateMutability": "nonpayable",
      "type": "function"
    },
    {
      "inputs": [
        {
          "internalType": "uint64",
          "name": "chainSelectorId",
          "type": "uint64"
        },
        {
          "internalType": "address",
          "name": "sideChainAddress",
          "type": "address"
        }
      ],
      "name": "setSideChainAddress",
      "outputs": [],
      "stateMutability": "nonpayable",
      "type": "function"
    },
    {
      "inputs": [
        {
          "internalType": "address",
          "name": "_subscription",
          "type": "address"
        }
      ],
      "name": "subscribeToRegistry",
      "outputs": [],
      "stateMutability": "nonpayable",
      "type": "function"
    },
    {
      "inputs": [
        {
          "internalType": "bytes4",
          "name": "interfaceId",
          "type": "bytes4"
        }
      ],
      "name": "supportsInterface",
      "outputs": [
        {
          "internalType": "bool",
          "name": "",
          "type": "bool"
        }
      ],
      "stateMutability": "pure",
      "type": "function"
    },
    {
      "inputs": [],
      "name": "symbol",
      "outputs": [
        {
          "internalType": "string",
          "name": "",
          "type": "string"
        }
      ],
      "stateMutability": "view",
      "type": "function"
    },
    {
      "inputs": [
        {
          "internalType": "uint256",
          "name": "",
          "type": "uint256"
        }
      ],
      "name": "tokenIdToExpirationTime",
      "outputs": [
        {
          "internalType": "uint256",
          "name": "",
          "type": "uint256"
        }
      ],
      "stateMutability": "view",
      "type": "function"
    },
    {
      "inputs": [
        {
          "internalType": "uint256",
          "name": "tokenId",
          "type": "uint256"
        }
      ],
      "name": "tokenURI",
      "outputs": [
        {
          "internalType": "string",
          "name": "",
          "type": "string"
        }
      ],
      "stateMutability": "view",
      "type": "function"
    },
    {
      "inputs": [],
      "name": "totalSupply",
      "outputs": [
        {
          "internalType": "uint256",
          "name": "",
          "type": "uint256"
        }
      ],
      "stateMutability": "view",
      "type": "function"
    },
    {
      "inputs": [
        {
          "internalType": "address",
          "name": "from",
          "type": "address"
        },
        {
          "internalType": "address",
          "name": "to",
          "type": "address"
        },
        {
          "internalType": "uint256",
          "name": "tokenId",
          "type": "uint256"
        }
      ],
      "name": "transferFrom",
      "outputs": [],
      "stateMutability": "nonpayable",
      "type": "function"
    },
    {
      "inputs": [
        {
          "internalType": "address",
          "name": "newOwner",
          "type": "address"
        }
      ],
      "name": "transferOwnership",
      "outputs": [],
      "stateMutability": "nonpayable",
      "type": "function"
    },
    {
      "inputs": [
        {
          "internalType": "uint256",
          "name": "bundleId",
          "type": "uint256"
        }
      ],
      "name": "updateBundleAfterReceive",
      "outputs": [],
      "stateMutability": "nonpayable",
      "type": "function"
    },
    {
      "stateMutability": "payable",
      "type": "receive"
    }
  ],
  "bytecode": "0x60e0604052600060078190556008556001600b556000601f553480156200002557600080fd5b5060405162006ce938038062006ce9833981016040819052620000489162000a99565b6020820151608080830151835185516001600160a01b031690925287928792879287928792339288928892909190733cc6cdda760b79bafa08df41ecfa224f810dceb660016200009982826200058f565b50506001600160a01b038116620000ca576040516335fdcccd60e21b81526000600482015260240160405180910390fd5b6001600160a01b0390811660a05290811660c052600380546001600160a01b03191691861691909117905582516200010a90600590602086019062000768565b5081516200012090600690602085019062000768565b5080516200013690600490602084019062000768565b505050506080820151600e80546001600160a01b0319166001600160a01b03909216919091179055506200016a33620006bd565b6200017660016200070f565b60005b8351811015620004605760008482815181106200019a576200019a62000c2d565b602090810291909101810151606001516001600160401b0381166000908152601b90925260409091205490915060ff166200024357601c80546001818101909255600481047f0e4562a10381dec21b205ed72637e6b1b523bdd0e4d4d50af5cd23dd4500a2110180546001600160401b0380861660086003909516949094026101000a8481029102199091161790556000908152601b60205260409020805460ff191690911790555b6001600160401b038116600090815260196020526040812086516001929088908690811062000276576200027662000c2d565b6020026020010151600001516001600160a01b03166001600160a01b0316815260200190815260200160002060006101000a81548160ff021916908315150217905550848281518110620002ce57620002ce62000c2d565b602002602001015160200151601d6000836001600160401b03166001600160401b03168152602001908152602001600020600087858151811062000316576200031662000c2d565b6020026020010151600001516001600160a01b03166001600160a01b0316815260200190815260200160002081905550601a6000826001600160401b03166001600160401b0316815260200190815260200160002085838151811062000380576200038062000c2d565b6020908102919091018101515182546001810184556000938452919092200180546001600160a01b0319166001600160a01b039092169190911790558451859083908110620003d357620003d362000c2d565b60200260200101516040015160186000878581518110620003f857620003f862000c2d565b6020026020010151600001516001600160a01b03166001600160a01b0316815260200190815260200160002060006101000a8154816001600160a01b0302191690836001600160a01b031602179055505060018162000458919062000c43565b905062000179565b508151600f80546001600160a01b0319166001600160a01b0390921691909117815560208084015180518593926200049e9260109291019062000768565b506040828101516002830180546001600160a01b039283166001600160a01b031991821617909155606080860151600386015560809586015160049095019490945585516014805491841691909216179055602085015160158054938701516001600160401b03908116600160a01b9081026001600160e01b03199687169486169490941793909317918290559487015160168054978901519094166801000000000000000002969094169385169390931794909417905560a0909301516017559351601e55602880546001600160401b03191691909204909316929092179091555062000ca79650505050505050565b6daaeb6d7670e522a718067333cd4e3b15620006b9576001600160a01b0382163b15620006725780156200063157604051633e9f1edf60e11b81523060048201526001600160a01b03831660248201526daaeb6d7670e522a718067333cd4e90637d3e3dbe906044015b600060405180830381600087803b1580156200061457600080fd5b505af115801562000629573d6000803e3d6000fd5b505050505050565b60405163a0af290360e01b81523060048201526001600160a01b03831660248201526daaeb6d7670e522a718067333cd4e9063a0af290390604401620005f9565b604051632210724360e11b81523060048201526daaeb6d7670e522a718067333cd4e90634420e48690602401600060405180830381600087803b1580156200061457600080fd5b5050565b600280546001600160a01b038381166001600160a01b0319831681179093556040519116919082907f8292fce18fa69edf4db7b94ea2e58241df0ae57f97e0a6c9b29067028bf92d7690600090a35050565b60028054821515600160a01b0260ff60a01b199091161790556040517f38475885990d8dfe9ca01f0ef160a1b5514426eab9ddbc953a3353410ba78096906200075d90831515815260200190565b60405180910390a150565b828054620007769062000c6a565b90600052602060002090601f0160209004810192826200079a5760008555620007e5565b82601f10620007b557805160ff1916838001178555620007e5565b82800160010185558215620007e5579182015b82811115620007e5578251825591602001919060010190620007c8565b50620007f3929150620007f7565b5090565b5b80821115620007f35760008155600101620007f8565b634e487b7160e01b600052604160045260246000fd5b604051608081016001600160401b03811182821017156200084957620008496200080e565b60405290565b604051601f8201601f191681016001600160401b03811182821017156200087a576200087a6200080e565b604052919050565b600082601f8301126200089457600080fd5b81516001600160401b03811115620008b057620008b06200080e565b6020620008c6601f8301601f191682016200084f565b8281528582848701011115620008db57600080fd5b60005b83811015620008fb578581018301518282018401528201620008de565b838111156200090d5760008385840101525b5095945050505050565b80516001600160a01b03811681146200092f57600080fd5b919050565b80516001600160401b03811681146200092f57600080fd5b600060a082840312156200095f57600080fd5b60405160a081016001600160401b0380821183831017156200098557620009856200080e565b81604052829350620009978562000917565b83526020850151915080821115620009ae57600080fd5b50620009bd8582860162000882565b602083015250620009d16040840162000917565b604082015260608301516060820152608083015160808201525092915050565b600060c0828403121562000a0457600080fd5b60405160c081016001600160401b038111828210171562000a295762000a296200080e565b60405290508062000a3a8362000917565b815262000a4a6020840162000917565b602082015262000a5d6040840162000934565b604082015262000a706060840162000934565b606082015262000a836080840162000917565b608082015260a083015160a08201525092915050565b6000806000806000610140868803121562000ab357600080fd5b85516001600160401b038082111562000acb57600080fd5b62000ad989838a0162000882565b965060209150818801518181111562000af157600080fd5b62000aff8a828b0162000882565b9650506040808901518281111562000b1657600080fd5b8901601f81018b1362000b2857600080fd5b80518381111562000b3d5762000b3d6200080e565b62000b4d858260051b016200084f565b81815260079190911b8201850190858101908d83111562000b6d57600080fd5b928601925b8284101562000be3576080848f03121562000b8d5760008081fd5b62000b9762000824565b62000ba28562000917565b8152878501518882015262000bb986860162000917565b86820152606062000bcc81870162000934565b908201528252608093909301929086019062000b72565b8099505050505050606088015191508082111562000c0057600080fd5b5062000c0f888289016200094c565b92505062000c218760808801620009f1565b90509295509295909350565b634e487b7160e01b600052603260045260246000fd5b6000821982111562000c6557634e487b7160e01b600052601160045260246000fd5b500190565b600181811c9082168062000c7f57607f821691505b6020821081141562000ca157634e487b7160e01b600052602260045260246000fd5b50919050565b60805160a05160c05161600462000ce560003960008181610eea0152610f2c0152600081816109500152611fde0152600061440801526160046000f3fe6080604052600436106102ab5760003560e01c806301ffc9a7146102b757806306fdde03146102ec578063081812fc1461030e578063095ea7b31461033b57806309aa7b671461035d57806313af40351461037d578063150b7a021461039d57806318160ddd146103e15780631d4158a2146104055780631da799c9146104405780631fe543e31461046d57806323b872dd1461048d57806330176e13146104ad57806332f0cd64146104cd5780633b1475a7146104ed57806341f43434146105025780634259fae91461052457806342842e0e1461048d57806344faf25514610544578063495860771461055a578063501db3c81461057a578063504c6e011461059a578063522cf70f146105bb57806352c5763a146105df57806353dcc46d1461061757806355f804b31461064d57806357fd84551461066d5780635b73dae61461068d57806361195e94146106bc5780636352211e146106dc57806365c3048e146107125780636bcd2e2b14610748578063705f1c2014610779578063707463eb1461078e57806370a08231146107d15780637ffd4fea1461080757806385572ffb146108345780638c9e7242146108545780638da5cb5b146108745780638f568dd314610889578063938e3d7b146108a95780639451c99a146108c957806395d89b41146108df5780639e7fd5d5146108f4578063a22cb46514610921578063b0f479a114610941578063b0fc77ff14610974578063b88d4fde14610989578063bc197c81146109a9578063c87b56dd146109d5578063d0d2fe25146109f5578063d5c1915114610a15578063e1b2b14014610a2b578063e41c937614610a4b578063e8a3d48514610a5e578063e985e9c514610a73578063f23a6e6114610abc578063f2fde38b14610ae8578063f7df834e14610b08578063f851a44014610b2857600080fd5b366102b257005b600080fd5b3480156102c357600080fd5b506102d76102d2366004614ca0565b610b48565b60405190151581526020015b60405180910390f35b3480156102f857600080fd5b50610301610b59565b6040516102e39190614d22565b34801561031a57600080fd5b5061032e610329366004614d35565b610be7565b6040516102e39190614d4e565b34801561034757600080fd5b5061035b610356366004614d77565b610c50565b005b34801561036957600080fd5b5061035b610378366004614da3565b610d3e565b34801561038957600080fd5b5061035b610398366004614da3565b610e3a565b3480156103a957600080fd5b506103c86103b8366004614f0a565b630a85bd0160e11b949350505050565b6040516001600160e01b031990911681526020016102e3565b3480156103ed57600080fd5b506103f760075481565b6040519081526020016102e3565b34801561041157600080fd5b506102d7610420366004614f91565b601960209081526000928352604080842090915290825290205460ff1681565b34801561044c57600080fd5b5061046061045b366004614fc8565b610e52565b6040516102e39190615000565b34801561047957600080fd5b5061035b6104883660046150ea565b610edf565b34801561049957600080fd5b5061035b6104a8366004615130565b610f67565b3480156104b957600080fd5b5061035b6104c8366004615171565b610f77565b3480156104d957600080fd5b5061035b6104e83660046151cf565b610fb4565b3480156104f957600080fd5b50600b546103f7565b34801561050e57600080fd5b5061032e6daaeb6d7670e522a718067333cd4e81565b34801561053057600080fd5b5061035b61053f366004614d35565b611010565b34801561055057600080fd5b506103f760085481565b34801561056657600080fd5b5061035b610575366004614d35565b6111bb565b34801561058657600080fd5b506103f7610595366004614d35565b61128a565b3480156105a657600080fd5b506002546102d790600160a01b900460ff1681565b3480156105c757600080fd5b506105d0611508565b6040516102e393929190615260565b3480156105eb57600080fd5b506028546105ff906001600160401b031681565b6040516001600160401b0390911681526020016102e3565b34801561062357600080fd5b5061032e610632366004614d35565b602f602052600090815260409020546001600160a01b031681565b34801561065957600080fd5b5061035b610668366004615171565b6117b3565b34801561067957600080fd5b5061035b610688366004614da3565b6117f0565b34801561069957600080fd5b506106ad6106a83660046152d2565b611849565b6040516102e3939291906152f7565b3480156106c857600080fd5b506103016106d7366004614d35565b611aea565b3480156106e857600080fd5b5061032e6106f7366004614d35565b6000908152600960205260409020546001600160a01b031690565b34801561071e57600080fd5b5061032e61072d3660046153b9565b602d602052600090815260409020546001600160a01b031681565b34801561075457600080fd5b50610768610763366004614fc8565b611b8f565b6040516102e3959493929190615406565b34801561078557600080fd5b50610301611f7a565b34801561079a57600080fd5b506107ae6107a9366004614fc8565b611f87565b604080519384526001600160a01b039092166020840152908201526060016102e3565b3480156107dd57600080fd5b506103f76107ec366004614da3565b6001600160a01b03166000908152600a602052604090205490565b34801561081357600080fd5b506103f7610822366004614d35565b60246020526000908152604090205481565b34801561084057600080fd5b5061035b61084f3660046154b5565b611fd3565b34801561086057600080fd5b506103f761086f3660046154ef565b61202f565b34801561088057600080fd5b5061032e612123565b34801561089557600080fd5b506105d06108a4366004614d35565b612132565b3480156108b557600080fd5b5061035b6108c4366004615171565b6122e7565b3480156108d557600080fd5b506103f7600b5481565b3480156108eb57600080fd5b506103016122f0565b34801561090057600080fd5b506103f761090f366004614d35565b602b6020526000908152604090205481565b34801561092d57600080fd5b5061035b61093c366004615533565b6122fd565b34801561094d57600080fd5b507f000000000000000000000000000000000000000000000000000000000000000061032e565b34801561098057600080fd5b506008546103f7565b34801561099557600080fd5b5061035b6109a4366004615561565b612392565b3480156109b557600080fd5b506103c86109c43660046155ff565b63bc197c8160e01b95945050505050565b3480156109e157600080fd5b506103016109f0366004614d35565b612446565b348015610a0157600080fd5b506103f7610a10366004614d35565b61247e565b348015610a2157600080fd5b506103f7601f5481565b348015610a3757600080fd5b506102d7610a46366004614d35565b612490565b6102d7610a593660046156b9565b6124cd565b348015610a6a57600080fd5b5061030161253e565b348015610a7f57600080fd5b506102d7610a8e3660046157ad565b6001600160a01b039182166000908152600d6020908152604080832093909416825291909152205460ff1690565b348015610ac857600080fd5b506103c8610ad73660046157cb565b63f23a6e6160e01b95945050505050565b348015610af457600080fd5b5061035b610b03366004614da3565b61254b565b348015610b1457600080fd5b5061035b610b23366004614f91565b612597565b348015610b3457600080fd5b5060035461032e906001600160a01b031681565b6000610b53826125fa565b92915050565b60058054610b6690615833565b80601f0160208091040260200160405190810160405280929190818152602001828054610b9290615833565b8015610bdf5780601f10610bb457610100808354040283529160200191610bdf565b820191906000526020600020905b815481529060010190602001808311610bc257829003601f168201915b505050505081565b6000818152600960205260408120546001600160a01b0316610c345760405162461bcd60e51b81526020600482015260016024820152600360fc1b60448201526064015b60405180910390fd5b506000908152600c60205260409020546001600160a01b031690565b6000818152600960205260409020546001600160a01b03908116908316811415610c8c5760405162461bcd60e51b8152600401610c2b9061586e565b336001600160a01b0382161480610cc657506001600160a01b0381166000908152600d6020908152604080832033845290915290205460ff165b610ce25760405162461bcd60e51b8152600401610c2b9061586e565b6000828152600c602052604080822080546001600160a01b0319166001600160a01b0387811691821790925591518593918516917f8c5be1e5ebec7d5bd14f71427d1e84f3dd0314c0f7b2291e5b200ac8c7c3b92591a4505050565b600b546000908152600960205260409020546001600160a01b0316610dfb57600b54600090815260096020908152604080832080546001600160a01b0319166001600160a01b0386169081179091558352600a9091528120805491610da283615895565b909155505060078054906000610db783615895565b9091555050600b546040516001600160a01b03831690600090600080516020615faf833981519152908290a4600b8054906000610df383615895565b919050555050565b600b546000908152600960205260409020546001600160a01b03828116911614610e375760405162461bcd60e51b8152600401610c2b9061586e565b50565b60405162461bcd60e51b8152600401610c2b906158b0565b610e5a614b4d565b600083815260208181526040808320858452600290810183529281902081516080810190925280546001600160a01b038116835291939092840191600160a01b900460ff1690811115610eaf57610eaf614fea565b6002811115610ec057610ec0614fea565b8152600182015460208201526002909101546040909101529392505050565b336001600160a01b037f00000000000000000000000000000000000000000000000000000000000000001614610f595760405163073e64fd60e21b81523360048201526001600160a01b037f0000000000000000000000000000000000000000000000000000000000000000166024820152604401610c2b565b610f638282612630565b5050565b610f728383836126c7565b505050565b6003546001600160a01b03163314610fa15760405162461bcd60e51b8152600401610c2b906158d8565b8051610f63906004906020840190614b76565b60405162461bcd60e51b815260206004820152602b60248201527f4e6f7420617574686f72697a656420746f20736574206f70657261746f72207260448201526a32b9ba3934b1ba34b7b71760a91b6064820152608401610c2b565b60005b600082815260276020526040902054811015611192576000828152602560205260408120805483908110611049576110496158f9565b906000526020600020906003020160405180608001604052908160008201805461107290615833565b80601f016020809104026020016040519081016040528092919081815260200182805461109e90615833565b80156110eb5780601f106110c0576101008083540402835291602001916110eb565b820191906000526020600020905b8154815290600101906020018083116110ce57829003601f168201915b505050918352505060018201546020808301919091526002909201546001600160a01b0381166040830152600160a01b90046001600160401b031660609091015281518051929350600092611146929082018101910161590f565b9050600061116682600001518360400151856060015185602001516127a8565b9050801561117c57815161117a90306127dd565b505b505050808061118a90615895565b915050611013565b5060008181526025602052604081206111aa91614bfa565b600090815260276020526040812055565b6000818152602f60205260409020546001600160a01b031661120a5760405162461bcd60e51b81526020600482015260086024820152671b9bdd105cd9db9960c21b6044820152606401610c2b565b60008181526024602052604090205461122290612490565b156112585760405162461bcd60e51b8152600401610c2b90602080825260049082015263189c9b9960e21b604082015260600190565b6000818152602f6020908152604080832054602490925290912054610e379130916001600160a01b03909116906126c7565b6011546040516370a0823160e01b81526000916001600160a01b0316906370a08231906112bb903390600401614d4e565b60206040518083038186803b1580156112d357600080fd5b505afa1580156112e7573d6000803e3d6000fd5b505050506040513d601f19601f8201168201806040525081019061130b9190615a4b565b601254111561134e5760405162461bcd60e51b815260206004820152600f60248201526e6e6f7420656e6f756768204554467360881b6044820152606401610c2b565b50600081815260246020908152604080832054808452602b9092529091205442116113a15760405162461bcd60e51b81526020600482015260036024820152621b1ad960ea1b6044820152606401610c2b565b601154601254604051632770a7eb60e21b81526001600160a01b0390921691639dc29fac916113d591339190600401615a64565b600060405180830381600087803b1580156113ef57600080fd5b505af1158015611403573d6000803e3d6000fd5b5050505060005b6114138361247e565b8110156114d25760155460008481526023602090815260408083208584529091529020546001600160401b03908116600160a01b909204161415611456576114c0565b6114c0604051806080016040528061146e8685610e52565b516001600160a01b031681526020016114878685610e52565b60200151600281111561149c5761149c614fea565b81526020016114ab8685610e52565b60400151815260200160008152508483612ed8565b6114cb600182615a7d565b905061140a565b506114dd3383612fb4565b6114e681613076565b6000918252602c602052604090912080546001600160a01b0319163317905590565b6060806060601e546001600160401b0381111561152757611527614dc0565b604051908082528060200260200182016040528015611550578160200160208202803683370190505b509250601e546001600160401b0381111561156d5761156d614dc0565b604051908082528060200260200182016040528015611596578160200160208202803683370190505b509150601e546001600160401b038111156115b3576115b3614dc0565b6040519080825280602002602001820160405280156115dc578160200160208202803683370190505b5090506000805b601c548110156117ac576000601c8281548110611602576116026158f9565b60009182526020822060048204015460039091166008026101000a90046001600160401b031691505b6001600160401b0382166000908152601a6020526040902054811015611797576001600160401b0382166000908152601d60209081526040808320601a9092528220805491929184908110611682576116826158f9565b60009182526020808320909101546001600160a01b0316835282019290925260400190205487518890869081106116bb576116bb6158f9565b602002602001018181525050601a6000836001600160401b03166001600160401b0316815260200190815260200160002081815481106116fd576116fd6158f9565b9060005260206000200160009054906101000a90046001600160a01b031686858151811061172d5761172d6158f9565b60200260200101906001600160a01b031690816001600160a01b03168152505081858581518110611760576117606158f9565b6001600160401b0390921660209283029190910190910152611783600185615a7d565b9350611790600182615a7d565b905061162b565b505080806117a490615895565b9150506115e3565b5050909192565b6002546001600160a01b031633146117dd5760405162461bcd60e51b8152600401610c2b906158b0565b8051610f63906010906020840190614b76565b60405162461bcd60e51b815260206004820152602860248201527f4e6f7420617574686f72697a656420746f2073756273637269626520746f207260448201526732b3b4b9ba393c9760c11b6064820152608401610c2b565b606080606060006118598661247e565b9050806001600160401b0381111561187357611873614dc0565b60405190808252806020026020018201604052801561189c578160200160208202803683370190505b509350806001600160401b038111156118b7576118b7614dc0565b6040519080825280602002602001820160405280156118e0578160200160208202803683370190505b50925060256000878152602001908152602001600020805480602002602001604051908101604052809291908181526020016000905b82821015611a13578382906000526020600020906003020160405180608001604052908160008201805461194990615833565b80601f016020809104026020016040519081016040528092919081815260200182805461197590615833565b80156119c25780601f10611997576101008083540402835291602001916119c2565b820191906000526020600020905b8154815290600101906020018083116119a557829003601f168201915b50505091835250506001828101546020808401919091526002909301546001600160a01b0381166040840152600160a01b90046001600160401b031660609092019190915291835292019101611916565b50505050915060005b81811015611ae1576000611a308883610e52565b5160008981526023602090815260408083208684528252808320546001600160401b03168352602982528083208c845282528083206001600160a01b038c1684528252808320868452909152902054875191925090879084908110611a9757611a976158f9565b60200260200101818152505080858381518110611ab657611ab66158f9565b6001600160a01b039092166020928302919091019091015250611ada600182615a7d565b9050611a1c565b50509250925092565b6000818152602081905260409020600101805460609190611b0a90615833565b80601f0160208091040260200160405190810160405280929190818152602001828054611b3690615833565b8015611b835780601f10611b5857610100808354040283529160200191611b83565b820191906000526020600020905b815481529060010190602001808311611b6657829003601f168201915b50505050509050919050565b6060806060806060856001600160401b03811115611baf57611baf614dc0565b604051908082528060200260200182016040528015611bd8578160200160208202803683370190505b509450856001600160401b03811115611bf357611bf3614dc0565b604051908082528060200260200182016040528015611c1c578160200160208202803683370190505b509350856001600160401b03811115611c3757611c37614dc0565b604051908082528060200260200182016040528015611c6a57816020015b6060815260200190600190039081611c555790505b509250856001600160401b03811115611c8557611c85614dc0565b604051908082528060200260200182016040528015611cae578160200160208202803683370190505b509150856001600160401b03811115611cc957611cc9614dc0565b604051908082528060200260200182016040528015611cf2578160200160208202803683370190505b50905060005b86811015611f6f576000611d0c8983615a7d565b905080878381518110611d2157611d216158f9565b6020026020010181815250506000611d51888481518110611d4457611d446158f9565b602002602001015161247e565b90506000816001600160401b03811115611d6d57611d6d614dc0565b604051908082528060200260200182016040528015611d96578160200160208202803683370190505b5090506000602760008b8781518110611db157611db16158f9565b602002602001015181526020019081526020016000205411868581518110611ddb57611ddb6158f9565b911515602092830291909101909101528115611ee257602160008a8681518110611e0757611e076158f9565b60200260200101518152602001908152602001600020600081548110611e2f57611e2f6158f9565b9060005260206000200160009054906101000a90046001600160a01b0316888581518110611e5f57611e5f6158f9565b60200260200101906001600160a01b031690816001600160a01b03168152505060005b82811015611ee057611ead8a8681518110611e9f57611e9f6158f9565b602002602001015182610e52565b60600151828281518110611ec357611ec36158f9565b602090810291909101015280611ed881615895565b915050611e82565b505b80878581518110611ef557611ef56158f9565b6020026020010181905250611f35602460008b8781518110611f1957611f196158f9565b6020026020010151815260200190815260200160002054612490565b858581518110611f4757611f476158f9565b6020026020010190151590811515815250505050508080611f6790615895565b915050611cf8565b509295509295909350565b60048054610b6690615833565b60266020528160005260406000208181548110611fa357600080fd5b60009182526020909120600390910201805460018201546002909201549093506001600160a01b03909116915083565b336001600160a01b037f0000000000000000000000000000000000000000000000000000000000000000161461201e57336040516335fdcccd60e21b8152600401610c2b9190614d4e565b610e3761202a82615b36565b613133565b60008381526024602052604081205461204790612490565b61207d5760405162461bcd60e51b81526020600482015260076024820152661b9bdd189c9b9960ca1b6044820152606401610c2b565b604080516060810182528581526000868152602c6020908152838220546001600160a01b031690830152918101919091526120b98484836132c6565b6040828101828152600097885260266020908152918820805460018082018355918a529883902085516003909a0201988955919093015190870180546001600160a01b0319166001600160a01b039092169190911790559051600290950194909455509192915050565b6002546001600160a01b031690565b606080606060006121428561247e565b9050806001600160401b0381111561215c5761215c614dc0565b604051908082528060200260200182016040528015612185578160200160208202803683370190505b509350806001600160401b038111156121a0576121a0614dc0565b6040519080825280602002602001820160405280156121c9578160200160208202803683370190505b509250806001600160401b038111156121e4576121e4614dc0565b60405190808252806020026020018201604052801561220d578160200160208202803683370190505b50915060005b818110156122de576122258682610e52565b6060015185828151811061223b5761223b6158f9565b6020026020010181815250506122518682610e52565b60000151848281518110612267576122676158f9565b6001600160a01b039092166020928302919091018201526000878152602382526040808220848352909252205483516001600160401b03909116908490839081106122b4576122b46158f9565b6001600160401b03909216602092830291909101909101526122d7600182615a7d565b9050612213565b50509193909250565b610e37816137db565b60068054610b6690615833565b6001600160a01b0382163314156123265760405162461bcd60e51b8152600401610c2b9061586e565b336000818152600d602090815260408083206001600160a01b03871680855290835292819020805460ff191686151590811790915590519081529192917f17307eab39ab6107e8899845ad3d59bd9653f200f220920489ca2b5937696c31910160405180910390a35050565b6000838152600960205260409020546001600160a01b038681169116146123cb5760405162461bcd60e51b8152600401610c2b906158d8565b600083815260096020908152604080832080546001600160a01b0319166001600160a01b038981169190911790915588168352600a909152812080549161241183615be2565b90915550506001600160a01b0384166000908152600a6020526040812080549161243a83615895565b91905055505050505050565b6060600b548211806124585750600182105b1561247157505060408051602081019091526000815290565b60108054611b0a90615833565b60009081526020819052604090205490565b6000600b54821015806124a35750600182105b156124b057506000919050565b506000908152600960205260409020546001600160a01b03161590565b600082815260246020526040812054156124f95760405162461bcd60e51b8152600401610c2b90615bf9565b60155461251a9084908490600160a01b90046001600160401b0316336127a8565b90506125273330846138bd565b8015610b535761253783306127dd565b5092915050565b60018054610b6690615833565b6003546001600160a01b031633146125755760405162461bcd60e51b8152600401610c2b906158d8565b600380546001600160a01b0319166001600160a01b0392909216919091179055565b6002546001600160a01b031633146125c15760405162461bcd60e51b8152600401610c2b906158b0565b6001600160401b03919091166000908152602d6020526040902080546001600160a01b0319166001600160a01b03909216919091179055565b60006001600160e01b031982166385572ffb60e01b1480610b5357506001600160e01b031982166301ffc9a760e01b1492915050565b6000828152602e6020908152604080832054835260219091528120805483518490849061265f5761265f6158f9565b60200260200101516126719190615c2b565b81548110612681576126816158f9565b6000918252602080832090910154948252602e81526040808320548352602f909152902080546001600160a01b0319166001600160a01b03909416939093179092555050565b6000818152600960205260409020546001600160a01b038481169116146127005760405162461bcd60e51b8152600401610c2b9061586e565b600081815260096020908152604080832080546001600160a01b0319166001600160a01b038781169190911790915586168352600a909152812080549161274683615be2565b90915550506001600160a01b0382166000908152600a6020526040812080549161276f83615895565b919050555080826001600160a01b0316846001600160a01b0316600080516020615faf83398151915260405160405180910390a4505050565b60006127b3856139e0565b6127bd8583613a54565b6127c985858585613ae6565b93506127d485613f5e565b95945050505050565b60006127e8600b5490565b60008481526024602052604090208190559050612806826001614052565b612811603c42615a7d565b6000828152602b602052604081209190915560135460125460649161283591615c3f565b61283f9190615c5e565b9050600081600f600301546128549190615c72565b90506000805b6128638761247e565b8110156129fc57601273eeeeeeeeeeeeeeeeeeeeeeeeeeeeeeeeeeeeeeee61288b8984610e52565b516001600160a01b03161461291e576128a48883610e52565b600001516001600160a01b031663313ce5676040518163ffffffff1660e01b815260040160206040518083038186803b1580156128e057600080fd5b505afa1580156128f4573d6000803e3d6000fd5b505050506040513d601f19601f820116820180604052508101906129189190615c89565b60ff1690505b60006018600061292e8b86610e52565b516001600160a01b03908116825260208201929092526040908101600020548151633fabe5a360e21b8152915192169163feaf968c9160048082019260a092909190829003018186803b15801561298457600080fd5b505afa158015612998573d6000803e3d6000fd5b505050506040513d601f19601f820116820180604052508101906129bc9190615cc3565b5050509150506129cc8984610e52565b606001516129da9082615c3f565b6129e49085615a7d565b935050506001816129f59190615a7d565b905061285a565b5060005b601c54811015612c2e576000601c8281548110612a1f57612a1f6158f9565b60009182526020822060048204015460039091166008026101000a90046001600160401b031691505b600089815260216020526040902054811015612c19576000898152602160205260408120805483908110612a7e57612a7e6158f9565b60009182526020808320909101546001600160401b03861683526029825260408084208e855283528084206001600160a01b0390921680855291909252908220909250815b612acc8d61247e565b811015612bc8576000612adf8e83610e52565b516001600160a01b03808216600090815260186020526040808220548151633fabe5a360e21b815291519495509193919092169163feaf968c9160048083019260a0929190829003018186803b158015612b3857600080fd5b505afa158015612b4c573d6000803e3d6000fd5b505050506040513d601f19601f82011682018060405250810190612b709190615cc3565b5050506000858152602087905260409020549092508b9150612b929083615c3f565b612b9c908d615c3f565b612ba69190615c5e565b612bb09086615a7d565b94505050600181612bc19190615a7d565b9050612ac3565b5060008c8152602a602090815260408083206001600160a01b038716845290915281208054849290612bfb908490615a7d565b92505081905550505050600181612c129190615a7d565b9050612a48565b50508080612c2690615895565b915050612a00565b5060005b600087815260216020526040902054811015612da4576000878152602a6020908152604080832060219092528220805483919085908110612c7557612c756158f9565b60009182526020808320909101546001600160a01b031683528201929092526040019020541115612d9257601154600088815260216020526040902080546001600160a01b03909216916340c10f19919084908110612cd657612cd66158f9565b60009182526020808320909101548b8352602a825260408084206021909352832080546001600160a01b03909216939187908110612d1657612d166158f9565b60009182526020808320909101546001600160a01b0316835282019290925260409081019091205490516001600160e01b031960e085901b168152612d5f929190600401615a64565b600060405180830381600087803b158015612d7957600080fd5b505af1158015612d8d573d6000803e3d6000fd5b505050505b612d9d600182615a7d565b9050612c32565b50600e546017546016546040516305d3b1d360e41b815260048101929092526001600160401b0316602482015260036044820152622625a06064820152600160848201528791602e916000916001600160a01b031690635d3b1d309060a401602060405180830381600087803b158015612e1d57600080fd5b505af1158015612e31573d6000803e3d6000fd5b505050506040513d601f19601f82011682018060405250810190612e559190615a4b565b81526020810191909152604001600020556011546001600160a01b03166340c10f19612e7f612123565b856040518363ffffffff1660e01b8152600401612e9d929190615a64565b600060405180830381600087803b158015612eb757600080fd5b505af1158015612ecb573d6000803e3d6000fd5b5050505050505092915050565b6000828152602081905260409020548110612f215760405162461bcd60e51b8152602060048201526009602482015268696e64657820444e4560b81b6044820152606401610c2b565b612f2a83614078565b600082815260208181526040808320848452600290810183529220855181546001600160a01b039091166001600160a01b03198216811783559287015187949293909284926001600160a81b03191690911790600160a01b908490811115612f9457612f94614fea565b021790555060408201516001820155606090910151600290910155505050565b6000612fbf8261247e565b90506000816001600160401b03811115612fdb57612fdb614dc0565b60405190808252806020026020018201604052801561301457816020015b613001614b4d565b815260200190600190039081612ff95790505b50905060005b8281101561305b5761302c8482610e52565b82828151811061303e5761303e6158f9565b6020908102919091010152613054600182615a7d565b905061301a565b5061306583614365565b6130703085836138bd565b50505050565b6000818152600960205260409020546001600160a01b03166130bf5760405162461bcd60e51b81526020600482015260026024820152616e6f60f01b6044820152606401610c2b565b6000818152600960209081526040808320546001600160a01b03168352600a90915281208054916130ef83615be2565b9091555050600081815260096020526040812080546001600160a01b0319169055600780549161311e83615be2565b909155505060088054906000610df383615895565b7f4add8c8902d6fd412fed639bf652d936405bbb837c732a202153c91e89ebfaa78160000151826020015183604001518060200190518101906131769190615d13565b846060015160405161318b9493929190615d30565b60405180910390a1600081606001518060200190518101906131ad919061590f565b905060006040518060800160405280846060015181526020018460000151815260200184604001518060200190518101906131e89190615d13565b6001600160a01b031681526020858101516001600160401b03169181019190915283516000908152602582526040812080546001810182559082529082902083518051949550859460039093029091019261324892849290910190614b76565b50602082810151600180840191909155604080850151600290940180546060909601516001600160401b0316600160a01b026001600160e01b03199096166001600160a01b0390951694909417949094179092558451600090815260279091529182208054919290916132bc908490615a7d565b9091555050505050565b6040805160a0810182526001600160401b0385166000908152602d602052918220548291908190613303906001600160a01b031660c08301614d4e565b60408051601f1981840301815291815290825280518651602082810191909152878101516001600160a01b03168284015291870151606082015291019060800160408051601f198184030181529190528152602001600060405190808252806020026020018201604052801561339f57816020015b60408051808201909152600080825260208201528152602001906001900390816133785790505b50815260200160018660018111156133b9576133b9614fea565b146133c55760006133d2565b6015546001600160a01b03165b6001600160a01b03168152604080518082018252623d0900808252600060209283019081528351602481019290925251151560448083019190915283518083039091018152606490910190925281810180516001600160e01b03166397a657c960e01b179052909101526014546040516320487ded60e01b81529192506000916001600160a01b03909116906320487ded906134749089908690600401615d73565b60206040518083038186803b15801561348c57600080fd5b505afa1580156134a0573d6000803e3d6000fd5b505050506040513d601f19601f820116820180604052508101906134c49190615a4b565b905060018560018111156134da576134da614fea565b141561371f576015546040516370a0823160e01b81526001600160a01b03909116906370a0823190613510903090600401614d4e565b60206040518083038186803b15801561352857600080fd5b505afa15801561353c573d6000803e3d6000fd5b505050506040513d601f19601f820116820180604052508101906135609190615a4b565b81111561360b576015546040516370a0823160e01b81526001600160a01b03909116906370a0823190613597903090600401614d4e565b60206040518083038186803b1580156135af57600080fd5b505afa1580156135c3573d6000803e3d6000fd5b505050506040513d601f19601f820116820180604052508101906135e79190615a4b565b604051634787a10360e11b8152600481019190915260248101829052604401610c2b565b60155460145460405163095ea7b360e01b81526001600160a01b039283169263095ea7b392613641929116908590600401615a64565b602060405180830381600087803b15801561365b57600080fd5b505af115801561366f573d6000803e3d6000fd5b505050506040513d601f19601f820116820180604052508101906136939190615e4b565b506014546040516396f4e9f960e01b81526001600160a01b03909116906396f4e9f9906136c69089908690600401615d73565b602060405180830381600087803b1580156136e057600080fd5b505af11580156136f4573d6000803e3d6000fd5b505050506040513d601f19601f820116820180604052508101906137189190615a4b565b92506137d2565b4781111561374957604051634787a10360e11b815247600482015260248101829052604401610c2b565b6014546040516396f4e9f960e01b81526001600160a01b03909116906396f4e9f990839061377d908a908790600401615d73565b6020604051808303818588803b15801561379657600080fd5b505af11580156137aa573d6000803e3d6000fd5b50505050506040513d601f19601f820116820180604052508101906137cf9190615a4b565b92505b50509392505050565b6000600180546137ea90615833565b80601f016020809104026020016040519081016040528092919081815260200182805461381690615833565b80156138635780601f1061383857610100808354040283529160200191613863565b820191906000526020600020905b81548152906001019060200180831161384657829003601f168201915b5050855193945061387f93600193506020870192509050614b76565b507fc9c7c3fe08b88b4df9d4d47ef47d2c43d55c025a0ba88ca442580ed9e7348a1681836040516138b1929190615e68565b60405180910390a15050565b6000805b825181101561398f5773eeeeeeeeeeeeeeeeeeeeeeeeeeeeeeeeeeeeeeee6001600160a01b03168382815181106138fa576138fa6158f9565b6020026020010151600001516001600160a01b031614801561392457506001600160a01b03841630145b156139595782818151811061393b5761393b6158f9565b602002602001015160600151826139529190615a7d565b915061397d565b61397d8585858481518110613970576139706158f9565b60200260200101516143d9565b613988600182615a7d565b90506138c1565b508015613070576040805160808101825273eeeeeeeeeeeeeeeeeeeeeeeeeeeeeeeeeeeeeeee815260006020820181905291810191909152606081018290526139d98585836143d9565b5050505050565b60008181526024602052604090205415613a0c5760405162461bcd60e51b8152600401610c2b90615bf9565b600081815260208052604090205460ff16610e37576001601f6000828254613a349190615a7d565b909155505060008181526020805260409020805460ff1916600117905550565b60008281526022602090815260408083206001600160a01b038516845290915290205460ff16613ab65760008281526021602090815260408220805460018101825590835291200180546001600160a01b0319166001600160a01b0383161790555b60009182526022602090815260408084206001600160a01b0390931684529190529020805460ff19166001179055565b606060005b8451811015613f54576000805b613b018861247e565b821015613d9657868381518110613b1a57613b1a6158f9565b6020026020010151600001516001600160a01b0316613b398984610e52565b516001600160a01b03161415613d84576001600160401b0386166000908152601d6020526040812090613b6c8a85610e52565b600001516001600160a01b03166001600160a01b0316815260200190815260200160002054878481518110613ba357613ba36158f9565b602002602001015160600151613bb98a85610e52565b60600151613bc79190615a7d565b1115613c38576001600160401b0386166000908152601d6020526040812090613bf08a85610e52565b600001516001600160a01b03166001600160a01b0316815260200190815260200160002054878481518110613c2757613c276158f9565b602002602001015160600181815250505b60019050613d0c6040518060800160405280898681518110613c5c57613c5c6158f9565b6020026020010151600001516001600160a01b03168152602001898681518110613c8857613c886158f9565b6020026020010151602001516002811115613ca557613ca5614fea565b8152602001898681518110613cbc57613cbc6158f9565b6020026020010151604001518152602001898681518110613cdf57613cdf6158f9565b602002602001015160600151613cf58c87610e52565b60600151613d039190615a7d565b90528984612ed8565b868381518110613d1e57613d1e6158f9565b602090810291909101810151606001516001600160401b03881660009081526029835260408082208c835284528082206001600160a01b038a1683528452808220868352909352918220805491929091613d79908490615a7d565b90915550613d849050565b613d8f600183615a7d565b9150613af8565b8015613da3575050613f42565b613e5b6040518060800160405280898681518110613dc357613dc36158f9565b6020026020010151600001516001600160a01b03168152602001898681518110613def57613def6158f9565b6020026020010151602001516002811115613e0c57613e0c614fea565b8152602001898681518110613e2357613e236158f9565b6020026020010151604001518152602001898681518110613e4657613e466158f9565b60200260200101516060015181525089614536565b600088815260236020526040812087916001613e768c61247e565b613e809190615c72565b815260200190815260200160002060006101000a8154816001600160401b0302191690836001600160401b03160217905550868381518110613ec457613ec46158f9565b602090810291909101810151606001516001600160401b03881660009081526029835260408082208c835284528082206001600160a01b038a16835290935291822090916001613f138c61247e565b613f1d9190615c72565b81526020019081526020016000206000828254613f3a9190615a7d565b909155505050505b613f4d600182615a7d565b9050613aeb565b5092949350505050565b601e54600090600190613f708461247e565b14613f79575060005b60005b601c54811015612537576000601c8281548110613f9b57613f9b6158f9565b60009182526020822060048204015460039091166008026101000a90046001600160401b031691505b613fcd8661247e565b81101561403d576001600160401b0382166000908152601d6020526040812090613ff78884610e52565b516001600160a01b0316815260208101919091526040016000205461401c8783610e52565b60600151101561402b57600093505b614036600182615a7d565b9050613fc4565b5050808061404a90615895565b915050613f7c565b60005b81811015610f725761406683610d3e565b8061407081615895565b915050614055565b60018160200151600281111561409057614090614fea565b141561414a5780516040516301ffc9a760e01b81526001600160a01b03909116906301ffc9a7906140c9906380ac58cd90600401615e8d565b60206040518083038186803b1580156140e157600080fd5b505afa925050508015614111575060408051601f3d908101601f1916820190925261410e91810190615e4b565b60015b61412d5760405162461bcd60e51b8152600401610c2b90615ea5565b80610f635760405162461bcd60e51b8152600401610c2b90615ea5565b60028160200151600281111561416257614162614fea565b141561419b5780516040516301ffc9a760e01b81526001600160a01b03909116906301ffc9a7906140c99063d9b67a2690600401615e8d565b6000816020015160028111156141b3576141b3614fea565b1415610e375780516001600160a01b031673eeeeeeeeeeeeeeeeeeeeeeeeeeeeeeeeeeeeeeee14610e375780516040516301ffc9a760e01b81526001600160a01b03909116906301ffc9a790614211906380ac58cd90600401615e8d565b60206040518083038186803b15801561422957600080fd5b505afa925050508015614259575060408051601f3d908101601f1916820190925261425691810190615e4b565b60015b61428357614265615ec9565b806308c379a01415610f63575061427a615ee5565b80610f63575050565b80156142a15760405162461bcd60e51b8152600401610c2b90615ea5565b81516040516301ffc9a760e01b81526001600160a01b03909116906301ffc9a7906142d49063d9b67a2690600401615e8d565b60206040518083038186803b1580156142ec57600080fd5b505afa92505050801561431c575060408051601f3d908101601f1916820190925261431991810190615e4b565b60015b61434757614328615ec9565b806308c379a01415610f72575061433d615ee5565b80610f7257505050565b8015610f725760405162461bcd60e51b8152600401610c2b90615ea5565b60005b6000828152602081905260409020548110156143c7576000828152602081815260408083208484526002908101909252822080546001600160a81b031916815560018082018490559101919091556143c09082615a7d565b9050614368565b50600090815260208190526040812055565b6000816020015160028111156143f1576143f1614fea565b141561442c57610f728160000151848484606001517f00000000000000000000000000000000000000000000000000000000000000006145ee565b60018160200151600281111561444457614444614fea565b14156144b75780516040808301519051632142170760e11b81526001600160a01b03909216916342842e0e916144809187918791600401615f6e565b600060405180830381600087803b15801561449a57600080fd5b505af11580156144ae573d6000803e3d6000fd5b50505050505050565b6002816020015160028111156144cf576144cf614fea565b1415610f7257805160408083015160608401519151637921219560e11b81526001600160a01b03878116600483015286811660248301526044820192909252606481019290925260a06084830152600060a48301529091169063f242432a9060c401614480565b61453f82614078565b60008181526020818152604080832080548085526002918201845291909320855181546001600160a01b039091166001600160a01b0319821681178355938701519294879492939284926001600160a81b0319161790600160a01b9084908111156145ac576145ac614fea565b02179055506040820151816001015560608201518160020155905050600160008084815260200190815260200160002060000160008282546132bc9190615a7d565b816145f8576139d9565b6001600160a01b03851673eeeeeeeeeeeeeeeeeeeeeeeeeeeeeeeeeeeeeeee1415614752576001600160a01b03841630141561469857604051632e1a7d4d60e01b8152600481018390526001600160a01b03821690632e1a7d4d90602401600060405180830381600087803b15801561467057600080fd5b505af1158015614684573d6000803e3d6000fd5b5050505061469383838361475e565b6139d9565b6001600160a01b038316301415614747573482146146ee5760405162461bcd60e51b81526020600482015260136024820152721b5cd9cb9d985b1d5948084f48185b5bdd5b9d606a1b6044820152606401610c2b565b806001600160a01b031663d0e30db0836040518263ffffffff1660e01b81526004016000604051808303818588803b15801561472957600080fd5b505af115801561473d573d6000803e3d6000fd5b50505050506139d9565b61469383838361475e565b6139d985858585614823565b6000836001600160a01b03168360405160006040518083038185875af1925050503d80600081146147ab576040519150601f19603f3d011682016040523d82523d6000602084013e6147b0565b606091505b505090508061307057816001600160a01b031663d0e30db0846040518263ffffffff1660e01b81526004016000604051808303818588803b1580156147f457600080fd5b505af1158015614808573d6000803e3d6000fd5b50613070935050506001600160a01b03841690508585614881565b816001600160a01b0316836001600160a01b0316141561484257613070565b6001600160a01b03831630141561486c576148676001600160a01b0385168383614881565b613070565b6130706001600160a01b0385168484846148d7565b610f728363a9059cbb60e01b84846040516024016148a0929190615a64565b60408051601f198184030181529190526020810180516001600160e01b03166001600160e01b0319909316929092179091526148f8565b613070846323b872dd60e01b8585856040516024016148a093929190615f6e565b600061494d826040518060400160405280602081526020017f5361666545524332303a206c6f772d6c6576656c2063616c6c206661696c6564815250856001600160a01b03166149ca9092919063ffffffff16565b805190915015610f72578080602001905181019061496b9190615e4b565b610f725760405162461bcd60e51b815260206004820152602a60248201527f5361666545524332303a204552433230206f7065726174696f6e20646964206e6044820152691bdd081cdd58d8d9595960b21b6064820152608401610c2b565b60606149d984846000856149e3565b90505b9392505050565b606082471015614a445760405162461bcd60e51b815260206004820152602660248201527f416464726573733a20696e73756666696369656e742062616c616e636520666f6044820152651c8818d85b1b60d21b6064820152608401610c2b565b6001600160a01b0385163b614a9b5760405162461bcd60e51b815260206004820152601d60248201527f416464726573733a2063616c6c20746f206e6f6e2d636f6e74726163740000006044820152606401610c2b565b600080866001600160a01b03168587604051614ab79190615f92565b60006040518083038185875af1925050503d8060008114614af4576040519150601f19603f3d011682016040523d82523d6000602084013e614af9565b606091505b5091509150614b09828286614b14565b979650505050505050565b60608315614b235750816149dc565b825115614b335782518084602001fd5b8160405162461bcd60e51b8152600401610c2b9190614d22565b604080516080810190915260008082526020820190815260200160008152602001600081525090565b828054614b8290615833565b90600052602060002090601f016020900481019282614ba45760008555614bea565b82601f10614bbd57805160ff1916838001178555614bea565b82800160010185558215614bea579182015b82811115614bea578251825591602001919060010190614bcf565b50614bf6929150614c1b565b5090565b5080546000825560030290600052602060002090810190610e379190614c30565b5b80821115614bf65760008155600101614c1c565b80821115614bf6576000614c448282614c66565b50600060018201556002810180546001600160e01b0319169055600301614c30565b508054614c7290615833565b6000825580601f10614c82575050565b601f016020900490600052602060002090810190610e379190614c1b565b600060208284031215614cb257600080fd5b81356001600160e01b0319811681146149dc57600080fd5b60005b83811015614ce5578181015183820152602001614ccd565b838111156130705750506000910152565b60008151808452614d0e816020860160208601614cca565b601f01601f19169290920160200192915050565b6020815260006149dc6020830184614cf6565b600060208284031215614d4757600080fd5b5035919050565b6001600160a01b0391909116815260200190565b6001600160a01b0381168114610e3757600080fd5b60008060408385031215614d8a57600080fd5b8235614d9581614d62565b946020939093013593505050565b600060208284031215614db557600080fd5b81356149dc81614d62565b634e487b7160e01b600052604160045260246000fd5b608081016001600160401b0381118282101715614df557614df5614dc0565b60405250565b606081016001600160401b0381118282101715614df557614df5614dc0565b604081016001600160401b0381118282101715614df557614df5614dc0565b601f8201601f191681016001600160401b0381118282101715614e5e57614e5e614dc0565b6040525050565b60405160a081016001600160401b0381118282101715614e8757614e87614dc0565b60405290565b60006001600160401b03831115614ea657614ea6614dc0565b604051614ebd601f8501601f191660200182614e39565b809150838152848484011115614ed257600080fd5b83836020830137600060208583010152509392505050565b600082601f830112614efb57600080fd5b6149dc83833560208501614e8d565b60008060008060808587031215614f2057600080fd5b8435614f2b81614d62565b93506020850135614f3b81614d62565b92506040850135915060608501356001600160401b03811115614f5d57600080fd5b614f6987828801614eea565b91505092959194509250565b80356001600160401b0381168114614f8c57600080fd5b919050565b60008060408385031215614fa457600080fd5b614fad83614f75565b91506020830135614fbd81614d62565b809150509250929050565b60008060408385031215614fdb57600080fd5b50508035926020909101359150565b634e487b7160e01b600052602160045260246000fd5b81516001600160a01b03168152602082015160808201906003811061503557634e487b7160e01b600052602160045260246000fd5b80602084015250604083015160408301526060830151606083015292915050565b60006001600160401b0382111561506f5761506f614dc0565b5060051b60200190565b600082601f83011261508a57600080fd5b8135602061509782615056565b6040516150a48282614e39565b83815260059390931b85018201928281019150868411156150c457600080fd5b8286015b848110156150df57803583529183019183016150c8565b509695505050505050565b600080604083850312156150fd57600080fd5b8235915060208301356001600160401b0381111561511a57600080fd5b61512685828601615079565b9150509250929050565b60008060006060848603121561514557600080fd5b833561515081614d62565b9250602084013561516081614d62565b929592945050506040919091013590565b60006020828403121561518357600080fd5b81356001600160401b0381111561519957600080fd5b8201601f810184136151aa57600080fd5b6151b984823560208401614e8d565b949350505050565b8015158114610e3757600080fd5b6000602082840312156151e157600080fd5b81356149dc816151c1565b600081518084526020808501945080840160005b8381101561521c57815187529582019590820190600101615200565b509495945050505050565b600081518084526020808501945080840160005b8381101561521c5781516001600160a01b03168752958201959082019060010161523b565b60608152600061527360608301866151ec565b6020838203818501526152868287615227565b8481036040860152855180825282870193509082019060005b818110156152c45784516001600160401b03168352938301939183019160010161529f565b509098975050505050505050565b600080604083850312156152e557600080fd5b823591506020830135614fbd81614d62565b6000606080835261530a818401876151ec565b60208482038186015261531d8288615227565b91506040858303818701528287518085528385019150838160051b860101848a0160005b838110156153a757601f1988840301855281516080815181865261536782870182614cf6565b838b0151878c0152898401516001600160a01b03168a880152928c01516001600160401b0316958c01959095525094870194925090860190600101615341565b50909c9b505050505050505050505050565b6000602082840312156153cb57600080fd5b6149dc82614f75565b600081518084526020808501945080840160005b8381101561521c5781511515875295820195908201906001016153e8565b60a08152600061541960a08301886151ec565b60208382038185015261542c8289615227565b915083820360408501528187518084528284019150828160051b850101838a0160005b8381101561547d57601f1987840301855261546b8383516151ec565b9486019492509085019060010161544f565b50508681036060880152615491818a6153d4565b94505050505082810360808401526154a981856153d4565b98975050505050505050565b6000602082840312156154c757600080fd5b81356001600160401b038111156154dd57600080fd5b820160a081850312156149dc57600080fd5b60008060006060848603121561550457600080fd5b8335925061551460208501614f75565b915060408401356002811061552857600080fd5b809150509250925092565b6000806040838503121561554657600080fd5b823561555181614d62565b91506020830135614fbd816151c1565b60008060008060006080868803121561557957600080fd5b853561558481614d62565b9450602086013561559481614d62565b93506040860135925060608601356001600160401b03808211156155b757600080fd5b818801915088601f8301126155cb57600080fd5b8135818111156155da57600080fd5b8960208285010111156155ec57600080fd5b9699959850939650602001949392505050565b600080600080600060a0868803121561561757600080fd5b853561562281614d62565b9450602086013561563281614d62565b935060408601356001600160401b038082111561564e57600080fd5b61565a89838a01615079565b9450606088013591508082111561567057600080fd5b61567c89838a01615079565b9350608088013591508082111561569257600080fd5b5061569f88828901614eea565b9150509295509295909350565b60038110610e3757600080fd5b60008060408084860312156156cd57600080fd5b833592506020808501356001600160401b038111156156eb57600080fd5b8501601f810187136156fc57600080fd5b803561570781615056565b84516157138282614e39565b82815260079290921b830184019184810191508983111561573357600080fd5b928401925b8284101561579d576080848b0312156157515760008081fd5b855161575c81614dd6565b843561576781614d62565b815284860135615776816156ac565b81870152848701358782015260608086013590820152825260809093019290840190615738565b8096505050505050509250929050565b600080604083850312156157c057600080fd5b8235614fad81614d62565b600080600080600060a086880312156157e357600080fd5b85356157ee81614d62565b945060208601356157fe81614d62565b9350604086013592506060860135915060808601356001600160401b0381111561582757600080fd5b61569f88828901614eea565b600181811c9082168061584757607f821691505b6020821081141561586857634e487b7160e01b600052602260045260246000fd5b50919050565b602080825260009082015260400190565b634e487b7160e01b600052601160045260246000fd5b60006000198214156158a9576158a961587f565b5060010190565b6020808252600e908201526d139bdd08185d5d1a1bdc9a5e995960921b604082015260600190565b6020808252600790820152663737b0b236b4b760c91b604082015260600190565b634e487b7160e01b600052603260045260246000fd5b6000602080838503121561592257600080fd5b82516001600160401b038082111561593957600080fd5b8185019150606080838803121561594f57600080fd5b6040805161595c81614dfb565b845181528585015161596d81614d62565b81870152848201518481111561598257600080fd5b80860195505088601f86011261599757600080fd5b845193506159a484615056565b82516159b08282614e39565b85815260079590951b860187019487810191508a8611156159d057600080fd5b958701955b85871015615a38576080878c0312156159ee5760008081fd5b83516159f981614dd6565b8751615a0481614d62565b815287890151615a13816156ac565b818a0152878501518582015285880151868201528252608090960195908701906159d5565b9282019290925298975050505050505050565b600060208284031215615a5d57600080fd5b5051919050565b6001600160a01b03929092168252602082015260400190565b60008219821115615a9057615a9061587f565b500190565b600082601f830112615aa657600080fd5b81356020615ab382615056565b60408051615ac18382614e39565b84815260069490941b8601830193838101925087851115615ae157600080fd5b8387015b85811015615b2a5782818a031215615afd5760008081fd5b8251615b0881614e1a565b8135615b1381614d62565b815281860135868201528452928401928201615ae5565b50979650505050505050565b600060a08236031215615b4857600080fd5b615b50614e65565b82358152615b6060208401614f75565b602082015260408301356001600160401b0380821115615b7f57600080fd5b615b8b36838701614eea565b60408401526060850135915080821115615ba457600080fd5b615bb036838701614eea565b60608401526080850135915080821115615bc957600080fd5b50615bd636828601615a95565b60808301525092915050565b600081615bf157615bf161587f565b506000190190565b60208082526002908201526118db60f21b604082015260600190565b634e487b7160e01b600052601260045260246000fd5b600082615c3a57615c3a615c15565b500690565b6000816000190483118215151615615c5957615c5961587f565b500290565b600082615c6d57615c6d615c15565b500490565b600082821015615c8457615c8461587f565b500390565b600060208284031215615c9b57600080fd5b815160ff811681146149dc57600080fd5b80516001600160501b0381168114614f8c57600080fd5b600080600080600060a08688031215615cdb57600080fd5b615ce486615cac565b9450602086015193506040860151925060608601519150615d0760808701615cac565b90509295509295909350565b600060208284031215615d2557600080fd5b81516149dc81614d62565b8481526001600160401b03841660208201526001600160a01b0383166040820152608060608201819052600090615d6990830184614cf6565b9695505050505050565b6000604060018060401b038516835260208181850152845160a083860152615d9e60e0860182614cf6565b905081860151603f1980878403016060880152615dbb8383614cf6565b88860151888203830160808a01528051808352908601945060009350908501905b80841015615e0e57845180516001600160a01b0316835286015186830152938501936001939093019290860190615ddc565b5060608901516001600160a01b031660a08901526080890151888203830160c08a01529550615e3d8187614cf6565b9a9950505050505050505050565b600060208284031215615e5d57600080fd5b81516149dc816151c1565b604081526000615e7b6040830185614cf6565b82810360208401526127d48185614cf6565b60e09190911b6001600160e01b031916815260200190565b6020808252600a908201526921546f6b656e5479706560b01b604082015260600190565b600060033d1115615ee25760046000803e5060005160e01c5b90565b600060443d1015615ef35790565b6040516003193d81016004833e81513d6001600160401b038083116024840183101715615f2257505050505090565b8285019150815181811115615f3a5750505050505090565b843d8701016020828501011115615f545750505050505090565b615f6360208286010187614e39565b509095945050505050565b6001600160a01b039384168152919092166020820152604081019190915260600190565b60008251615fa4818460208701614cca565b919091019291505056feddf252ad1be2c89b69c2b068fc378daa952ba7f163c4a11628f55a4df523b3efa26469706673582212203e126504c9591a369cb22fb174f4238332d7401043df37f3779c0a532ba1739564736f6c63430008090033",
  "linkReferences": {},
  "deployedLinkReferences": {}
}